:100000000C9446000C9465000C9465000C946500FB
:100010000C9465000C9465000C9465000C946500CC
:100020000C9465000C9465000C9465000C946500BC
:100030000C9465000C9465000C9465000C946500AC
:100040000C9479000C9465000C9465000C94650088
:100050000C9465000C9465000C9465000C9465008C
:100060000C9465000C9465000C9465000C9465007C
:100070000C9465000C9465000C9465000C9465006C
:100080000C9465000C9465000C94650011241FBE4F
:10009000CFEFD0E1DEBFCDBF11E0A0E0B1E0E2E8FC
:1000A000F1E000E00BBF02C007900D92A230B10753
:1000B000D9F721E0A2E0B1E001C01D92A330B20760
:1000C000E1F70E94AD000C94BF000C94000087B3D0
:1000D000876087BB8DB180658DB9709A089580B7B0
:1000E000886080BF87B7816087BF83B7816083BF27
:1000F00008951F920F920FB60F9211242F938F9392
:100100009F93809102018F5F809302018F7379F03A
:1001100080910001803819F481E0809300019F9163
:100120008F912F910F900FBE0F901F901895809177
:1001300000018FB9779BFECF88B398B38160892B7C
:1001400088BB28B398B387E08227892388BB809136
:100150000001880F80930001DDCF80B7886080BFE9
:1001600087B7816087BF83B7816083BF87B38760AC
:1001700087BB8DB180658DB9709A7894FFCFF89464
:02018000FFCFAF
:0201820001007A
:00000001FF
