:100000000C9446000C9458000C9458000C94580022
:100010000C9458000C9458000C9458000C94580000
:100020000C9458000C9458000C9458000C945800F0
:100030000C9458000C9458000C9458000C945800E0
:100040000C9458000C9458000C9458000C945800D0
:100050000C9458000C9458000C9458000C945800C0
:100060000C9458000C9458000C9458000C945800B0
:100070000C9458000C9458000C9458000C945800A0
:100080000C9458000C9458000C94580011241FBE76
:10009000CFEFD0E1DEBFCDBF21E0A0E0B1E001C0F5
:1000A0001D92A630B207E1F70E9489000C94E60089
:1000B0000C94000040B32091040130910501220FFF
:1000C000331F306E842F817090E0282B392B3093B2
:1000D00005012093040181E02115304F09F080E0F3
:1000E000089540B32091020130910301220F331F84
:1000F000306E41FB882780F990E0282B392B309314
:1001000003012093020181E02115304F09F080E0C6
:1001100008958FEF87BBA1E00EC0FF2309F442C012
:1001200080B381708A1709F44AC08FE39FE1019779
:10013000F1F700C0000020B3809104019091050107
:10014000880F991F906E422F417050E0842B952BA1
:100150009093050180930401F1E0811520EF92074F
:1001600009F0F0E0F0930101E0B320910201309139
:100170000301220F331F306EE1FB662760F970E048
:10018000262B372B3093030120930201E1E0211548
:10019000304F09F0E0E0E093000120B32695217094
:1001A0002A13BBCF8115904F09F0BACF88B38F5F68
:1001B00088BBE091000180B381708A13B6CFEE2333
:1001C00009F4B3CF88B3815088BBAFCFF894FFCF89
:00000001FF
