:100000000C9446000C9465000C9465000C946500FB
:100010000C9465000C9465000C9465000C946500CC
:100020000C9465000C9465000C9465000C946500BC
:100030000C9465000C9465000C9465000C946500AC
:100040000C9465000C9465000C9465000C9465009C
:100050000C9465000C9465000C9465000C9465008C
:100060000C9465000C9465000C9465000C9465007C
:100070000C9465000C9465000C9465000C9465006C
:100080000C9465000C9465000C94650011241FBE4F
:10009000CFEFD0E1DEBFCDBF11E0A0E0B1E0EAEDEF
:1000A000F3E000E00BBF02C007900D92AC30B10747
:1000B000D9F721E0ACE0B1E001C01D92A032B20757
:1000C000E1F70E9476010C94EB010C940000482F9C
:1000D0001ABA8FEF8BBB80EF88BBE42FF0E099B3A7
:1000E000EE0FFF1FE45FFE4F20813181220F331F8F
:1000F000306E892F90E002C0959587954A95E2F77A
:1001000081709927282B392B3183208381E0211599
:10011000304F09F080E00895DF92EF92FF920F9345
:100120001F93CF93DF93AC0118BA8FEF8ABB9A016C
:100130003695279536952795ABE7B4E10E94DC010B
:100140009695879564E6689F9001699F300D11240C
:10015000CA01821B930B9C01ADECBCEC0E94DC013C
:100160007C01F694E794F694E794F694E7949A0168
:10017000369527953695279536952795A5ECB0E2C7
:100180000E94DC01929582958F7089279F70892744
:1001900068EE73E0869F9001879F300D969F300D2B
:1001A0001124CA01821B930B9C0136952795369525
:1001B0002795ABE7B4E10E94DC018C011695079509
:1001C0009A01329522952F7023273F702327A7E4A9
:1001D000B3E00E94DC019695879596958795969554
:1001E000879560E177E2869F9001879F300D969F0B
:1001F000300D1124CA01821B930B9C013695279563
:100200003695279536952795A5ECB0E20E94DC013E
:10021000EC01D295C295CF70CD27DF70CD27DC2EB3
:1002200018BA9A01ADECBCEC0E94DC01969587955A
:1002300096958795969587959C01220F331F880F79
:10024000991F880F991F880F991F820F931F481BB2
:10025000590BFA01E050FF4F80818BBB8FE99FE083
:100260000197F1F700C00000802F8E298C2B59F4E4
:100270008C2F802BC1F4DF91CF911F910F91FF90B4
:10028000EF90DF90089580E188BBF701E050FF4FC9
:1002900080818BBB8FE99FE00197F1F700C00000E0
:1002A0008C2F802B41F380E388BBF801E050FF4F97
:1002B00080818BBB8FE99FE00197F1F700C00000C0
:1002C000DD20C9F280E488BBC050DF4F88818BBB42
:1002D0008FE99FE00197F1F700C00000DF91CF9117
:1002E0001F910F91FF90EF90DF90089588EF87BBEB
:1002F00010921D0110921C010FEF10EFC1E0D0E031
:1003000080911C0190911D010E948C0010921F0190
:1003100010921E0180E090E00CC080911E0190912F
:100320001F01019690931F0180931E018830910553
:10033000B4F51ABA0BBB18BB9C01332799B3F9016A
:10034000EE0FFF1FE45FFE4F40815181440F551FA8
:10035000506E892F90E002C0959587952A95E2F717
:1003600081709927842B952B918380838115904FE1
:10037000A1F680911E0190911F0120911C013091E6
:100380001D01AE01082E02C0440F551F0A94E2F76A
:10039000240F351F30931D0120931C01C2CF809183
:1003A0001C0190911D01811594400CF4A9CF10926D
:1003B0001D0110921C01A4CFA29FB001B39FC001E8
:1003C000A39F700D811D1124911DB29F700D811D81
:0A03D0001124911D0895F894FFCF49
:0C03DA00C0F9A4B0999282F88098FF004E
:00000001FF
