:100000000C9446000C9450000C9450000C9450003A
:100010000C9450000C9450000C9450000C94500020
:100020000C9450000C9450000C9450000C94500010
:100030000C9450000C9450000C9450000C94500000
:100040000C9450000C9450000C9450000C945000F0
:100050000C9450000C9450000C9450000C945000E0
:100060000C9450000C9450000C9450000C945000D0
:100070000C9450000C9450000C9450000C945000C0
:100080000C9450000C9450000C94500011241FBE8E
:10009000CFEFD0E1DEBFCDBF0E9459000C949A0093
:1000A0000C94000087E087BB80E58DB981E08EB9B4
:1000B000089587E087BB80E58DB981E08EB927E0A0
:1000C0008FB9779BFECFC09A98B3922798BB880FC1
:1000D000803871F13FEF41EE94E031504040904064
:1000E000E1F700C000003FEF41EE94E031504040A6
:1000F0009040E1F700C000003FEF41EE94E0315046
:1001000040409040E1F700C000003FEF41EE94E036
:10011000315040409040E1F700C000003FEF41EE19
:1001200094E0315040409040E1F700C00000C8CF5B
:0801300081E0D0CFF894FFCF6D
:00000001FF
