S01600006865617274626561745F736B656C2E7372656350
S11300000C9446000C9465000C9465000C946500F7
S11300100C9465000C9465000C9465000C946500C8
S11300200C9465000C9465000C9465000C946500B8
S11300300C9465000C9465000C9465000C946500A8
S11300400C9465000C9465000C9465000C94650098
S11300500C9465000C9465000C9465000C94650088
S11300600C9465000C9465000C9465000C94650078
S11300700C9465000C9467000C9465000C94650066
S11300800C9465000C9465000C94650011241FBE4B
S1130090CFEFD0E1DEBFCDBF11E0A0E0B1E0ECE5F1
S11300A0F1E000E00BBF02C007900D92A832B10747
S11300B0D9F721E0A8E2B1E001C01D92A932B2074C
S11300C0E1F70E9492000C94AC000C9400001F9283
S11300D00F920FB60F9211240BB60F928F939F932A
S11300E0EF93FF93E0912801E331B9F0EF5FE093E0
S11300F02801F0E0EE0FFF1FE050FF4F8081918157
S11301009BBD8ABDFF91EF919F918F910F900BBE84
S11301100F900FBE0F901F90189510922801E0E0E9
S1130120F0E0E8CF80E287BB8FB5826C8FBD8EB5DF
S113013089618EBD10927A0080E090EF97BD86BDF4
S113014010928B0082E080938A0010928C0084E0ED
S10F015080937D007894FFCFF894FFCFDB
S113015C00100020006000A000D000DF50DF00E0A1
S113016C00EDF0EF00ED00E050DF00DF00D000A068
S10B017C006000200010000FD8
S9030000FC
