:100000000C9446000C9465000C9465000C946500FB
:100010000C9465000C9465000C9465000C946500CC
:100020000C9465000C9465000C9465000C946500BC
:100030000C9465000C9465000C9465000C946500AC
:100040000C94E6000C9465000C9465000C9465001B
:100050000C9465000C94D2000C9465000C9465001F
:100060000C9465000C9465000C9465000C9465007C
:100070000C9465000C9465000C9465000C9465006C
:100080000C9465000C9465000C94650011241FBE4F
:10009000CFEFD0E1DEBFCDBF11E0A0E0B1E0E0E402
:1000A000F2E100E00BBF02C007900D92A831B1074A
:1000B000D9F721E0A8E1B1E001C01D92A338B20751
:1000C000E1F70E9439080C941E090C940000E1E647
:1000D000F0E0808188608083E2E6F0E08081877FC5
:1000E000808387B3876087BB80E58DB981E08EB957
:1000F00008958BE685BD81EE83BD83B7816083BFA4
:1001000080B7886080BF87B7816087BF0895139AE2
:100110008C9A8FEF8ABB87B3806F87BB82B1806C6C
:1001200082B98A9A0895E1E6F0E080818F77808332
:10013000E2E6F0E080818F77808387E487B98FE8FB
:1001400086B90895369A089583BD0895E0911D01FA
:100150004E2F50E09C013695279536952795ABE7B5
:10016000B4E10E94FB08969587954817590778F0E7
:1001700001968417950728F4E150E0931D014E2F56
:1001800050E0FA01EE5FFE4F808183BD0895EF5F7E
:10019000E0931D014E2F50E0FA01EE5FFE4F80818B
:1001A00083BD08951F920F920FB60F9211248F9363
:1001B0009F9384B195B190930101809300019F9129
:1001C0008F910F900FBE0F901F9018951F920F9256
:1001D0000FB60F9211240BB60F922F933F934F93AC
:1001E0005F936F937F938F939F93AF93BF93EF939F
:1001F000FF9380911C018F5F80931C01982F9F7744
:1002000009F441C0813009F461C08F71F9F4209183
:10021000000130910101E0911D014E2F50E0369513
:10022000279536952795ABE7B4E10E94FB08969594
:10023000879548175907E8F4EF5FE0931D014E2FAB
:1002400050E0FA01EE5FFE4F808183BDFF91EF9198
:10025000BF91AF919F918F917F916F915F914F91DE
:100260003F912F910F900BBE0F900FBE0F901F90DC
:10027000189501968417950720F7E150E0931D012A
:100280004E2F50E0DECF8091220190912301A0916A
:100290002401B09125010196A11DB11D8093220179
:1002A00090932301A0932401B09325010E94170588
:1002B0000E942F0580913D01833061F083E080939F
:1002C0003D0180911C01813009F09FCF369A8091C9
:1002D0001C019BCF10923D0180911C0193CF209176
:1002E0001B0130911A0190911F01937090931B0193
:1002F00080911F0186958695837080931A01291736
:1003000021F0213059F0223099F0381721F03130A6
:1003100051F0323091F080E090E008959330A9F7E9
:1003200081E090E008958330B1F782E090E0089595
:10033000933059F78FEF9FEF0895833061F78EEF79
:100340009FEF08951E981F9A1FB8779BFECF8FB11D
:1003500080931F011E9A1F9808951F93CF93DF93D8
:10036000AC01162F8FEF8ABB9A01369527953695EB
:10037000279536952795A5ECB0E20E94FB0892954B
:1003800082958F7089279F70892768EE73E0869F1A
:100390009001879F300D969F300D1124CA01821B5A
:1003A000930B9C013695279536952795ABE7B4E1DD
:1003B0000E94FB08EC01D695C7959A0132952295CB
:1003C0002F7023273F702327A7E4B3E00E94FB0888
:1003D00096958795969587959695879560E177E2AE
:1003E000869F9001879F300D969F300D1124CA0182
:1003F000821B930B9C01369527953695279536954C
:100400002795A5ECB0E20E94FB08FC01F295E2956D
:10041000EF70EF27FF70EF2788B38F7888BB9A01C2
:10042000ADECBCEC0E94FB08969587959695879558
:10043000969587959C01220F331F880F991F880F6F
:10044000991F880F991F820F931FDA01A81BB90B00
:10045000A45FBE4F8C918BBB8FE99FE00197F1F7B2
:1004600000C0000088B38F7888BBC49A9A01369583
:10047000279536952795ABE7B4E10E94FB08969542
:10048000879564E6689F9001699F300D1124CA0129
:10049000821B930B9C01ADECBCEC0E94FB08969573
:1004A00087959695879596958795DC01A45FBE4FB5
:1004B0008C918BBB8FE99FE00197F1F700C00000A2
:1004C000112361F088B38F7888BBC59A10951BBB48
:1004D0008FE99FE00197F1F700C0000088B38F78A3
:1004E00088BB88B3806388BBC45FDE4F88818BBBC9
:1004F0008FE99FE00197F1F700C0000088B38F7883
:1005000088BBC69AE45FFE4F80818BBB8FE99FE07A
:100510000197F1F700C00000DF91CF911F9108957E
:100520004F925F926F927F928F929F92AF92BF9203
:10053000CF92DF92EF92FF92CF93DF93CDB7DEB7EA
:1005400029970FB6F894DEBF0FBECDBF2B013C013B
:1005500049876CE3C62ED12CE12CF12CC301B201EA
:10056000A70196010E94BA08CA01B901A701960124
:100570000E94BA08EAE08E2E912CA12CB12CA50184
:1005800094010E94BA0869017A016D837E838F838A
:100590009887C301B20120E13EE040E050E00E94B4
:1005A000BA08CA01B901A50194010E94BA08698379
:1005B0007A838B839C83C301B20120EA3CE840E04C
:1005C00050E00E94BA08223009F452C088EE93E04D
:1005D000289FA001299F500D112424E669817A816A
:1005E000269FC001279F900D1124840F951F96010F
:1005F000220F331FCC0CDD1CCC0CDD1CCC0CDD1C05
:10060000C20ED31EC80ED91E8D809E808C0C9D1CE0
:1006100079857723B9F09401329522952F7023279D
:100620003F702327AAE6B3E00E94FB0820EB34E0EA
:10063000AC01429FC001439F900D529F900D112429
:10064000881A990AC40129960FB6F894DEBF0FBE26
:10065000CDBFDF91CF91FF90EF90DF90CF90BF9013
:10066000AF909F908F907F906F905F904F90089584
:100670004981443009F0AACF10922201109223013F
:100680001092240110922501A1CF91E0811101C0A7
:1006900090E09FB9779BFECF6FB9779BFECF80919B
:1006A000620088608093620080916200877F8093FF
:1006B00062008FE99FE00197F1F700C00000089504
:1006C00021E02FB9779BFECF20911E01FC01E20FA4
:1006D000F11D80818FB9779BFECF80916200886089
:1006E0008093620080916200877F80936200809196
:1006F0001E018F5F80931E01803109F1803209F065
:10070000089595ED9A95F1F700001FB8779BFECFFD
:1007100082E08FB9779BFECF8091620088608093E2
:10072000620080916200877F809362008FE99FE082
:100730000197F1F700C0000010921E01089585EDA9
:100740008A95F1F700001FB8779BFECF80EC8FB938
:10075000779BFECF809162008860809362008091D9
:100760006200877F809362008FE99FE00197F1F735
:1007700000C0000080911E01C1CF660F660F660F9A
:10078000605C1FB8779BFECF6FB9779BFECF20913F
:10079000620028602093620020916200277F2093EE
:1007A0006200AFE9BFE01197F1F700C00000FC0163
:1007B0009C01285F3F4F91E081919FB9779BFECFCD
:1007C0008FB9779BFECF8091620088608093620032
:1007D00080916200877F80936200AFE9BFE011974C
:1007E000F1F700C00000E217F30731F7089590E435
:1007F000899F600D1124605C1FB8779BFECF6FB995
:10080000779BFECF80916200886080936200809128
:100810006200877F809362008FE99FE00197F1F784
:1008200000C000000895811119C081E08FB9779B45
:10083000FECF80E38FB9779BFECF80916200886006
:100840008093620080916200877F809362008FE9CD
:100850009FE00197F1F700C0000008958436B0F4DE
:100860008A3090F591E09FB9779BFECF9DEC899FF0
:10087000912D1124969596959695FAE09F9F801953
:100880001124805D8FB9779BFECFD7CF99E2899FE6
:10089000912D112492959F70905D21E02FB9779B47
:1008A000FECF9FB9779BFECF9091620098609093A6
:1008B000620090916200977F90936200EFE9FFE001
:1008C0003197F1F700C0000099E2899F912D112422
:1008D00092959F70282FF4E69F9F20191124922F44
:1008E0002DEC929F912D1124969596959695905D5D
:1008F00021E02FB9779BFECF9FB9779BFECF9091D8
:10090000620098609093620090916200977F90934C
:100910006200EFE9FFE03197F1F700C00000A2CFDD
:1009200087FF0C94130491E09FB9779BFECF9DE263
:100930009FB9779BFECF9091620098609093620080
:1009400090916200977F90936200EFE9FFE031970A
:10095000F1F700C0000081950C9413041FB8779B39
:10096000FECF8EE08FB9779BFECF809162008860CA
:100970008093620080916200877F809362008FE99C
:100980009FE00197F1F700C0000008951FB8779B22
:10099000FECF8CE08FB9779BFECF8091620088609C
:1009A0008093620080916200877F809362008FE96C
:1009B0009FE00197F1F700C0000008951FB8779BF2
:1009C000FECF8EE18FB9779BFECF80916200886069
:1009D0008093620080916200877F809362008FE93C
:1009E0009FE00197F1F700C0000008951FB8779BC2
:1009F000FECF88E18FB9779BFECF8091620088603F
:100A00008093620080916200877F809362008FE90B
:100A10009FE00197F1F700C000000895E2E6F0E0E2
:100A20008081886080838081877F808308951FB85C
:100A3000779BFECF81E08FB9779BFECF80916200DC
:100A400088608093620080916200877F809362005B
:100A50008FE99FE00197F1F700C0000008951FB8EB
:100A6000779BFECF82E08FB9779BFECF80916200AB
:100A700088608093620080916200877F809362002B
:100A80008FE99FE00197F1F700C0000008951FB8BB
:100A9000779BFECF80EC8FB9779BFECF8091620071
:100AA00088608093620080916200877F80936200FB
:100AB0008FE99FE00197F1F700C00000089590E1F1
:100AC00031E020E23FB9779BFECF2FB9779BFECF75
:100AD0008091620088608093620080916200877FCD
:100AE00080936200EFE9FFE03197F1F700C000006A
:100AF000915041F7089591E09FB9779BFECF8FB950
:100B0000779BFECF80916200886080936200809125
:100B10006200877F809362008FE99FE00197F1F781
:100B200000C000000895FC0140E050E060E071E08A
:100B3000DF01A40FB51F8C917FB9779BFECF8FB9D2
:100B4000779BFECF909162009860909362009091A5
:100B50006200977F909362008FE99FE00197F1F721
:100B600000C000006F5F462F50E0DF010D900020B5
:100B7000E9F79D012E1B3F0B225031092417350741
:100B8000B8F608958FEF99EF0197F1F700C00000D4
:100B900088E0809361001FB8779BFECF80E38FB918
:100BA000779BFECF80916200886080936200809185
:100BB0006200877F809362008FE99FE00197F1F7E1
:100BC00000C000001FB8779BFECF80E38FB9779BF2
:100BD000FECF809162008860809362008091620005
:100BE000877F809362008FE99FE00197F1F700C053
:100BF00000001FB8779BFECF80E38FB9779BFECFB5
:100C00008091620088608093620080916200877F9B
:100C1000809362008FE99FE00197F1F700C0000028
:100C20001FB8779BFECF88E38FB9779BFECF80916B
:100C3000620088608093620080916200877F809369
:100C400062008FE99FE00197F1F700C000001FB834
:100C5000779BFECF88E08FB9779BFECF80916200B3
:100C600088608093620080916200877F8093620039
:100C70008FE99FE00197F1F700C000001FB8779B54
:100C8000FECF81E08FB9779BFECF809162008860B4
:100C90008093620080916200877F809362008FE979
:100CA0009FE00197F1F700C000001FB8779BFECFCF
:100CB00086E08FB9779BFECF809162008860809339
:100CC000620080916200877F809362008FE99FE0DD
:100CD0000197F1F700C000001FB8779BFECF8CE0B2
:100CE0008FB9779BFECF809162008860809362000D
:100CF00080916200877F809362008FE99FE0019777
:100D0000F1F700C0000008954F925F926F927F92BA
:100D10008F929F92AF92BF92CF92DF92EF92FF920B
:100D20000F931F93CF93DF93CDB7DEB769970FB6BD
:100D3000F894DEBF0FBECDBF142F422E5E2C0023D1
:100D400079F06B017C01CC24F7FCC394DD24EE2404
:100D5000FF240C2D6B017C0197FDA5C0C701B601D6
:100D6000442009F498C09E012F5F3F4F590149016B
:100D700066246A94640C712C3FEF631A730A6A0C40
:100D80007B1C2AE030E040E050E00E94DC08E62FC7
:100D90002A8B3B8B4C8B5D8B6A897B898C899D89E7
:100DA00020E32E0FF40121934F016E167F0649F7C1
:100DB00099249394940CF501E40DF11D2EE2208307
:100DC0002AE030E040E050E00E94DC08E62F2A8B69
:100DD0003B8B4C8B5D8B6E8B7F8B888F998F6A8959
:100DE0007B898C899D8931E0390DD501A90DB11D13
:100DF000E05DEC93932E611571058105910501F776
:100E0000112361F051104DC090E2311738F4F50113
:100E1000E30FF11D90833F5F1313F9CF002331F0EF
:100E2000F501E30FF11D9DE290833F5F21E031501A
:100E3000F501E30FF11D90812FB9779BFECF9FB98C
:100E4000779BFECF909162009860909362009091A2
:100E50006200977F909362008FE99FE00197F1F71E
:100E600000C000003111E3CF69960FB6F894DEBFE1
:100E70000FBECDBFDF91CF911F910F91FF90EF90EB
:100E8000DF90CF90BF90AF909F908F907F906F90AA
:100E90005F904F900895912C9E012F5F3F4F590115
:100EA0008FCF90E3B2CFF094E094D094C094C11C63
:100EB000D11CE11CF11C52CF5F926F927F928F92F6
:100EC0009F92AF92BF92CF92DF92EF92FF920F93D9
:100ED0001F93CF93DF93CDB7DEB761970FB6F8942A
:100EE000DEBF0FBECDBF5C01962E542E622E8B2C22
:100EF000881C8824881C782C9C0197FD9FC0552055
:100F000009F490C08E010F5F1F4F7801CC24CA9462
:100F1000C50CD12C8FEFC81AD80AC00ED11E6AE0BA
:100F200070E0C9010E94A608462F242F372F805D4C
:100F3000F70181937F01EC15FD0589F7FF24F394F8
:100F4000F50CF801E50DF11D8EE2808301C0F92E4C
:100F50006AE070E0C9010E94A608462F242F372FAF
:100F600091E09F0DF801EF0DF11D805D808321154B
:100F7000310569F761105BC0B7FC65C09920B1F01D
:100F8000682D70E080E2292F30E0492D50E0461BAB
:100F9000570B2417350754F49F5FF801E20FF31F36
:100FA0008083292F30E024173507B4F3772031F000
:100FB000F801E90FF11D8DE280839F5F21E09150E0
:100FC000F801E90FF11D80812FB9779BFECF8FB912
:100FD000779BFECF80916200886080936200809151
:100FE0006200877F80936200EFE9FFE03197F1F7BD
:100FF00000C000009111E3CF61960FB6F894DEBFF8
:101000000FBECDBFDF91CF911F910F91FF90EF9059
:10101000DF90CF90BF90AF909F908F907F906F9018
:101020005F900895F12C8E010F5F1F4F91CF992093
:1010300009F4BCCF682D70E080E3A5CF22273327C9
:10104000281B390B5CCFF394F394F801E90FF11DE1
:101050008DE28083992059F02F2D30E0492D50E00A
:101060002417350724F49F2D712C80E295CF9F2DF6
:10107000A5CF8091610088608093610080916200BB
:10108000877F8093620087B3876087BB80E58DB9D7
:10109000C1E0CEB98BE685BD81EE83BD83B78160AB
:1010A00083BF80B7886080BF87B7816087BF0E9499
:1010B0008700809161008F7780936100809162004A
:1010C0008F778093620087E487B98FE886B90E94A2
:1010D00087000E94C2050E94170578941092220191
:1010E00010922301109224011092250183E0809335
:1010F0003D01C0932101C0913D01409121016091CA
:1011000022017091230180912401909125010E9478
:1011100090026C2F0E94AD010E94A2010E946F01FB
:10112000029749F78091220190912301A091240117
:10113000B0912501CC96A11DB11D80932201909301
:101140002301A0932401B0932501D5CF97FB072E4F
:1011500016F4009407D077FD09D00E940A0907FC15
:1011600005D03EF4909581959F4F089570956195B7
:101170007F4F0895A1E21A2EAA1BBB1BFD010DC0D3
:10118000AA1FBB1FEE1FFF1FA217B307E407F50737
:1011900020F0A21BB30BE40BF50B661F771F881F13
:1011A000991F1A9469F760957095809590959B01A9
:1011B000AC01BD01CF010895052E97FB1EF40094EC
:1011C0000E94F30857FD07D00E94BA0807FC03D01D
:1011D0004EF40C94F30850954095309521953F4F6F
:1011E0004F4F5F4F089590958095709561957F4F13
:1011F0008F4F9F4F0895A29FB001B39FC001A39F3F
:10120000700D811D1124911DB29F700D811D11243F
:10121000911D0895AA1BBB1B51E107C0AA1FBB1F4C
:10122000A617B70710F0A61BB70B881F991F5A9572
:10123000A9F780959095BC01CD010895F894FFCF52
:10124000D900D0D0B5A18D7965513D15C0F9A4B0B4
:08125000999282F88098FF00DA
:00000001FF
